:020000040000FA
:100000000C9430020C9458020C9458020C94580230
:100010000C9458020C9458020C9458020C945802F8
:100020000C9458020C9458020C9458020C945802E8
:100030000C9458020C9458020C9458020C945802D8
:100040000C9484240C9458020C9452240C942C2468
:100050000C9458020C9458020C9458020C945802B8
:100060000C94CE240C94580200407A10F35A00A04D
:10007000724E18090010A5D4E80000E87648170071
:1000800000E40B54020000CA9A3B000000E1F505B1
:10009000000080969800000040420F000000A086FB
:1000A00001000000102700000000E803000000002D
:1000B0006400000000000A000000000001000000D1
:1000C00000002C76D888DC674F0823DFC1DFAE59EB
:1000D000E1B1B796E5E3E453C63AE651997696E87E
:1000E000E6C28426EB898C9B62ED407C6FFCEFBC02
:1000F0009C9F40F2BAA56FA5F490055A2AF75C932D
:100100006B6CF9676DC11BFCE0E40D47FEF520E662
:10011000B500D0ED902E0300943577050080841E45
:10012000080000204E0A000000C80C333333330FA0
:10013000986E12831141EF8D2114893BE65516CF3D
:10014000FEE6DB18D1844B381BF77C1D901DA4BB49
:10015000E424203284725E228100C9F124ECA1E5FE
:100160003D275D2000626C6E6B696E66007665727D
:1001700000312E322E3000682D62656174003435F6
:1001800000627566662D696E0032353600646576EC
:100190000041726475696E6F20556E6F00637075F3
:1001A0000041546D6567613332385000636F6E00F3
:1001B00057353130300066772D7479706500544DB5
:1001C000504C336747373944574F4E006275696C5E
:1001D00064004D61792020372032303233203131B4
:1001E0003A33343A3535000000436F6E6E65637400
:1001F000696E6720746F2000436F6E6E656374696B
:100200006E6720746F20000D0A202020205F5F5F42
:1002100020205F5F202020202020202020205F5FE2
:100220000D0A2020202F205F20292F202F5F205F04
:100230005F5F5F5F20202F202F5F5F0D0A20202F40
:10024000205F20202F202F202F2F202F205F205CA9
:100250002F2020275F2F0D0A202F5F5F5F5F2F5F0A
:100260002F5C5F2C202F5F2F2F5F2F5F2F5C5F5C39
:100270000D0A20202020202020202F5F5F5F2F20CC
:1002800076312E322E30206F6E2041726475696E89
:100290006F20556E6F0D0A0D0A20235374616E6432
:1002A00057697468556B7261696E652020202068FB
:1002B000747470733A2F2F6269742E6C792F737770
:1002C00075610D0A0D0A0000000000250028002BB2
:1002D0000000000000240027002A0049503A004492
:1002E000484350204661696C656421004765747419
:1002F000696E672049502E2E2E006D73292E0052F4
:1003000065616479202870696E673A2000000000FA
:100310000023002600290004040404040404040249
:100320000202020202030303030303010204081092
:10033000204080010204081020010204081020005F
:100340000000080002010000030407000000000094
:100350000000005B025B025B025B025B025B025B14
:10036000025B025B025B025B025B025B025B025BA5
:10037000025B025B025B025B025B025B025B025B95
:10038000025B025B025B025B025B025B025B025B85
:10039000025B02040C5A02DE0B5A02BC0BA00B5A81
:1003A000025A025A025A025A025A025A025A025A6D
:1003B000025A025A025A025A025A025A025A025A5D
:1003C000025A025A025A025A025A025A025A025A4D
:1003D000025A02496E76616C696420485720636D49
:1003E000643A20005365727665723A200052656463
:1003F0006972656374696E6720746F20005265616D
:100400006479005061636B657420746F6F2062695A
:10041000673A2000436F6E6E656374206661696C95
:1004200065642E20636F64653A2000496E76616CC6
:100430006964206175746820746F6B656E004C6F21
:1004400067696E2074696D656F75740048656172C7
:1004500074626561742074696D656F7574008C26B3
:1004600011241FBECFEFD8E0DEBFCDBF13E0A0E068
:10047000B1E0EEE3F0E702C005900D92A433B107BE
:10048000D9F726E0A4E3B3E001C01D92A337B20779
:10049000E1F712E0C0E3D2E004C02197FE010E9420
:1004A0001E37CF32D107C9F70E9481270C941D381F
:1004B0000C940000089508958CBD9DBD089520E31F
:1004C000FC0120833296862F82958F706F706A3080
:1004D00030F4605D6293682F8111F5CF0895695CF7
:1004E000F9CFFC01818D928D0895089508950895A6
:1004F000DC01ED91FC910190F081E02D0994AF9227
:10050000BF92CF92DF92EF92FF920F931F93CF9300
:10051000DF936C017B018B01040F151FEB015E0162
:10052000AE18BF08C017D10759F06991D601ED91F7
:10053000FC910190F081E02DC6010995892B79F796
:10054000C501DF91CF911F910F91FF90EF90DF9048
:10055000CF90BF90AF900895FC01538D448D252F0F
:1005600030E0842F90E0821B930B541710F0CF964D
:10057000089501970895FC01918D828D981761F07F
:10058000A28DAE0FBF2FB11D5D968C91928D9F5F96
:100590009F73928F90E008958FEF9FEF0895FC0175
:1005A000918D828D981731F0828DE80FF11D858D28
:1005B00090E008958FEF9FEF0895FC01918D228DBB
:1005C000892F90E0805C9F4F821B91098F73992740
:1005D000089587E894E00E94DD0221E0892B09F468
:1005E00020E0822F089580E090E0892B29F00E947E
:1005F000E90281110C9400000895FC01A48DA80F5C
:10060000B92FB11DA35ABF4F2C91848D90E0019654
:100610008F739927848FA689B7892C93A089B18974
:100620008C91837080648C93938D848D981306C015
:100630000288F389E02D80818F7D80830895EF9279
:10064000FF920F931F93CF93DF93EC0181E0888F8C
:100650009B8D8C8D98131AC0E889F989808185FF5C
:1006600015C09FB7F894EE89FF896083E889F989FE
:1006700080818370806480839FBF81E090E0DF9100
:10068000CF911F910F91FF90EF900895F62E0B8D53
:1006900010E00F5F1F4F0F731127E02E8C8D8E110E
:1006A0000CC00FB607FCFACFE889F989808185FF75
:1006B000F5CFCE010E94FD02F1CFEB8DEC0FFD2FA7
:1006C000F11DE35AFF4FF0829FB7F8940B8FEA8930
:1006D000FB8980818062CFCF0F931F93CF93DF93ED
:1006E0008C01D0E0C0E0F801EC0FFD1F649166239F
:1006F00041F087E894E00E941F03892B11F02196B6
:10070000F2CFCE01DF91CF911F910F910895682F05
:1007100087E894E00C941F03CF93DF93EC01888D5E
:100720008823B9F0AA89BB89E889F9898C9185FD6C
:1007300003C0808186FD0DC00FB607FCF7CF8C91FA
:1007400085FFF2CF808185FFEDCFCE010E94FD02B3
:10075000E9CFDF91CF910895833081F028F4813083
:1007600099F08230A9F008958730A9F08830C9F057
:100770008430B1F4809180008F7D03C0809180002F
:100780008F7780938000089584B58F7784BD089516
:1007900084B58F7DFBCF8091B0008F778093B000C0
:1007A00008958091B0008F7DF9CF1F93CF93DF9391
:1007B000282F30E0F901E15CFC4F8491F901E55DFF
:1007C000FC4FD491F901E95EFC4FC491CC23A9F010
:1007D000162F81110E94AC03EC2FF0E0EE0FFF1FEB
:1007E000E953FD4FA591B4918FB7F894EC91111195
:1007F00008C0D095DE23DC938FBFDF91CF911F918E
:100800000895DE2BF8CFCF93DF9390E0FC01E55DF8
:10081000FC4F2491895E9C4FFC0184918823C9F090
:1008200090E0880F991FFC01EF52FD4FA591B49104
:10083000FC01E953FD4FC591D49161110DC09FB7E3
:10084000F8948C91209582238C9388812823288387
:100850009FBFDF91CF910895623051F49FB7F89414
:100860003C91822F809583238C93E8812E2BEFCFB0
:100870008FB7F894EC912E2B2C938FBFEACF1F9358
:10088000CF93DF93182FEB0161E00E9403042097C0
:1008900039F460E0812FDF91CF911F910C94D50343
:1008A000CF3FD10511F461E0F5CFE12FF0E0E15C3D
:1008B000FC4FE491E33031F140F4E130B1F0E2304B
:1008C000E1F0C038D1057CF7E4CFE73029F1E8301A
:1008D00059F1E430B1F7809180008062809380000C
:1008E000D0938B00C0938A0004C084B5806884BD17
:1008F000C7BDDF91CF911F91089584B5806284BDFB
:10090000C8BDF7CF80918000806880938000D0932D
:100910008900C0938800EDCF8091B00080688093FB
:10092000B000C093B300E5CF8091B00080628093A7
:10093000B000C093B400DDCF8E3008F08E508770C9
:10094000806480937C0080917A00806480937A0038
:1009500080917A0086FDFCCF80917800909179009B
:1009600008953FB7F8948091EC039091ED03A09126
:10097000EE03B091EF0326B5A89B05C02F3F19F0F9
:100980000196A11DB11D3FBFBA2FA92F982F88270F
:10099000BC01CD01620F711D811D911D42E0660FEA
:1009A000771F881F991F4A95D1F708958F929F92BC
:1009B000AF92BF92CF92DF92EF92FF926B017C01D8
:1009C0000E94B1044B015C01C114D104E104F104A3
:1009D000B9F00E94B104681979098A099B09683E37
:1009E00073408105910580F321E0C21AD108E10826
:1009F000F10888EE880E83E0981EA11CB11CE4CF9C
:100A0000FF90EF90DF90CF90BF90AF909F908F902E
:100A100008952FB7F8946091E8037091E9038091ED
:100A2000EA039091EB032FBF08954F925F926F926C
:100A30007F92AF92BF92CF92DF92EF92FF920F938D
:100A40001F93CF93DF93EC016B017B01E40EF51E46
:100A50008B015801AC18BD080E151F0511F10E943D
:100A60000905688779878A879B87E881F9810284ED
:100A7000F385E02DCE01099597FF23C00E9409055B
:100A8000488459846A847B846419750986099709A6
:100A90004C805D806E807F806415750586059705A6
:100AA00020F3C501DF91CF911F910F91FF90EF903F
:100AB000DF90CF90BF90AF907F906F905F904F90FE
:100AC0000895F80181938F01C4CF20917603260FFA
:100AD0003327331F21323105ECF42091BF03FC0191
:100AE00090E080E0243069F082E00895A0917603E0
:100AF0002191AC014A5A5C4FA40FB52FB11D2C9324
:100B00000196861798F380917603680F60937603B9
:100B100080E0089581E008951092BF0381E0809302
:100B2000BE031092990361E082E10E94D50361E067
:100B300083E10E94D503E9EBF0E080818E7F808322
:100B400080818D7F808388E48093B80085E48093E2
:100B5000BC000895CF93DF9391E0909355038823D1
:100B6000B9F0C091B800D091BA008091BC008A7BE6
:100B70008093BC0060E082E10E94D50360E083E1E5
:100B80000E94D5030E948C05D093BA00C093B80090
:100B9000DF91CF910895E091F7038091F603E81774
:100BA00030F4F0E0EB5CFC4F808190E008958FEF33
:100BB0009FEF08959091F7038091F6032FEF3FEF99
:100BC000981748F4E92FF0E0EB5CFC4F208130E00F
:100BD0009F5F9093F703C90108958091F603909168
:100BE000F703891B990B0895CF92DF92EF92FF9242
:100BF0000F931F93CF93DF937C01CB018A01209148
:100C0000C503222389F0EB016B01C40ED51ECC1560
:100C1000DD0569F06991D701ED91FC910190F081BA
:100C2000E02DC7010995F3CF642F0E946505C80127
:100C3000DF91CF911F910F91FF90EF90DF90CF90B8
:100C40000895CF93DF931F92CDB7DEB769832091CC
:100C5000C5032223F9F02091F403203258F021E05B
:100C600030E0FC013383228390E080E00F90DF913D
:100C7000CF9108958091F503E82FF0E0EA53FC4FFF
:100C8000998190838F5F8093F5038093F40381E0D3
:100C900090E0ECCF61E0CE0101960E946505F7CFB0
:100CA000CF92DF92EF92FF920F931F93CF93DF9338
:100CB000FC01C48121E02093C503C093E603109298
:100CC000F5031092F4038385682B84E295E00E947B
:100CD0002106D091F403D13208F092C00E94B104F1
:100CE0006B017C018091BF03811165C082E080931C
:100CF000BF0381E08093BE038FEF8093BD0310920A
:100D0000BC03D093BB03A6ECB3E0EBE9F3E080E0D7
:100D1000D81385C010929A0380919A03CC0FC82BE8
:100D2000C0939A0380919903813009F07CC010929E
:100D300099030E94B1046B017C0180919A03809316
:100D4000BB008091C1039091C203A091C303B091F5
:100D5000C403892B8A2B8B2B99F00E94B10400913C
:100D6000C1031091C2032091C3033091C4036C19D5
:100D70007D098E099F090617170728073907E0F133
:100D80008091BC0083FDD9CF85EC8093BC000E948C
:100D9000B1046B017C018091BF03823009F445C02E
:100DA0008091BD038F3F61F18091BD03803241F19D
:100DB0008091BD0325C08091C1039091C203A09191
:100DC000C303B091C403892B8A2B8B2B09F48ACFE0
:100DD0000E94B1040091C1031091C2032091C3038A
:100DE0003091C4036C197D098E099F0906171707F6
:100DF0002807390708F076CF8091C0030E94AA0522
:100E00001092F5031092F4031092C503DF91CF9175
:100E10001F910F91FF90EF90DF90CF9008959D91DB
:100E200091938F5F75CF85EEB0CF8091C103909184
:100E3000C203A091C303B091C403892B8A2B8B2BCF
:100E400009F4A9CF0E94B1040091C1031091C2031B
:100E50002091C3033091C4036C197D098E099F0949
:100E6000061717072807390708F095CFC5CFFC01EB
:100E700020812EBD9B012150310941F051810DB4DB
:100E800007FEFDCF4EB55EBD4193F5CF61507109B0
:100E9000860F971F0DB407FEFDCF2EB5FC012083F2
:100EA0000895E091F903F091FA0380819091F8039D
:100EB000892B80830895E091F903F091FA039081E2
:100EC0008091F80380958923808308958EBD00006A
:100ED0000DB407FEFDCF8EB50895AF92BF92CF92AD
:100EE000DF92EF92FF920F931F93CF93DF93CDB7D3
:100EF000DEB728970FB6F894DEBF0FBECDBF8C01CA
:100F00007B016A01809186048333E1F45801A40EC9
:100F1000B51EA016B10609F46FC00E945B0780EFF2
:100F20000E946607812F0E946607802F0E94660735
:100F30000F5F1F4FF70181917F010E9466070E949A
:100F40005107E7CF5B01A40EB51E8433C1F40E94A4
:100F50005B0719830A838D2D80688B83CC8264E0C4
:100F600070E0CE0101960E943707AE14BF0409F469
:100F700041C0F70181917F010E946607F6CF0E9470
:100F80005B070F3F110509F028F419820A8384E0FA
:100F90008B830CC017FD17C019820A8333E01695A6
:100FA00007953A95E1F7007E0C600B8386E0C81642
:100FB000D104A0F5F701DE011496EA15FB0599F0BE
:100FC00081918D93FACFC80126E0969587952A9551
:100FD000E1F7807E19830A830115104C10F48461B7
:100FE000D7CF8C61D5CFB6016D5F7F4FCE01019613
:100FF0000E9437070E945107C60128960FB6F89441
:10100000DEBF0FBECDBFDF91CF911F910F91FF903B
:10101000EF90DF90CF90BF90AF90089563E070E0C5
:10102000CE0101960E943707F70181917F010E944E
:101030006607AE14BF04C1F7DDCFCF93DF931F92D5
:10104000CDB7DEB7898341E050E0BE016F5F7F4FCF
:1010500090E080E00E946D070F90DF91CF9108959E
:1010600090E020918604233339F40C96982F990F41
:10107000990F990F80E008954896F8CFDA01E09132
:10108000FC03F0E0FE2FEE27E60FF71F90E0982F0D
:101090008827A901BD018E0F9F1F0C946D07CF9368
:1010A000DF9300D0CDB7DEB779836A8322E030E0EA
:1010B000AE014F5F5F4F60E170E00E943E080F900D
:1010C0000F90DF91CF910895CF93DF9300D0CDB7EC
:1010D000DEB779836A8322E030E0AE014F5F5F4F75
:1010E00064E070E00E943E080F900F90DF91CF9176
:1010F0000895CF93DF931F92CDB7DEB72091FC0305
:1011000030E0322F2227260F371F90E0982F8827B4
:10111000498341E050E0BE016F5F7F4F820F931F14
:101120000E946D070F90DF91CF910895CF93DF93C9
:101130001F92CDB7DEB76983DC01ED91FC9102808F
:10114000F381E02D41E050E0BE016F5F7F4F0995D4
:101150000F90DF91CF910895FC019485FB01848568
:10116000981303C081E0943008F080E00895CF9395
:10117000DF931F92CDB7DEB76983DC01ED91FC915F
:101180000280F381E02D41E050E0BE016F5F7F4FB0
:1011900009950F90DF91CF9108950895FF920F93D5
:1011A0001F93CF93DF93EB01FC01178A168A2A81E4
:1011B000211109C02B81211106C02C81211103C0EE
:1011C0002D81222301F141155105E9F08A01FC012D
:1011D000F08C80E591E00E945C02AE014E5F5F4FB3
:1011E00024E030E06CE070E08F2D0E943E08B801F2
:1011F0008F2D0E944F0881E090E0DF91CF911F91E9
:101200000F91FF90089580E0F7CFFC0184859585CC
:101210000895FC0184899589089527EC31E0FC014B
:1012200031832083FB014089518962897389FC01E4
:1012300042835383648375830895DC01ED91FC91AF
:10124000048CF58DE02D099490E080E008958EE007
:101250000E949C04BC01990F880B990B0E946E346C
:1012600020E030E040EA50E40E94CD3420E030E05D
:1012700040E85AE30E94CD342AE037ED43E25CE3D4
:101280000E942536089581E090E00E94870390E057
:1012900080E00C94870390E080E00E94870390E058
:1012A00080E00C94870390E080E00E94870381E057
:1012B00090E00C948703CF9380E390E00E94870333
:1012C00087E894E00E94DD02892BD1F387E894E05F
:1012D0000E94BB02C82F8093340387E894E00E94E9
:1012E000DD02892BD1F387E894E00E94BB0220E065
:1012F0003C2FA901482BCA01CF910895FC01948588
:10130000992369F080819181DC01ED91FC9106883F
:10131000F789E02D099591E0811101C090E0892FB6
:101320000895DC011C961C921C978D919C9100974E
:1013300039F0DC01ED91FC910488F589E02D0994E8
:101340000895FC01768765870895DC01ED91FC9195
:10135000068CF78DE02D099591E089270895862F59
:10136000089581E08627089521E0FC01848584307A
:1013700008F020E0822F08950F931F93CF938C01E4
:10138000C62F0E9450066C2F6460C8010E94500650
:101390006C2F6B7FC8010E94500683EC90E0019790
:1013A000F1F7CF911F910F9108950F931F93CF9352
:1013B000DF938C01D62FC42F607F642B0E94BC0961
:1013C00080E1D89FB00111246C2BC801DF91CF912F
:1013D0001F910F910C94BC09CF93DF93CDB7DEB76B
:1013E00028970FB6F894DEBF0FBECDBF98E0EDE2B0
:1013F000F1E0DE01119601900D929A95E1F790913E
:101400006E05961708F46FEF262F30E0220F331F7A
:1014100041E050E04C0F5D1F240F351FF901608142
:10142000680F606840E086E695E028960FB6F8946D
:10143000DEBF0FBECDBFDF91CF910C94D50941E047
:101440000E94D50981E090E00895FB010190002001
:10145000E9F73197AF01461B570BDC01ED91FC9189
:101460000280F381E02D0994CF93DF930E946C03F7
:10147000EC0169EC71E087E894E00E94250A8C0F8A
:101480009D1FDF91CF9108958F929F92AF92BF924F
:10149000EF92FF920F931F93CF93DF93CDB7DEB7F9
:1014A000A1970FB6F894DEBF0FBECDBF7C01FA0145
:1014B000CB0119A2223008F42AE08E010F5D1F4FE4
:1014C000822E912CB12CA12CBF01A50194010E9468
:1014D000F435F901CA016A300CF5605DD8016E93EC
:1014E0008D01232B242B252B79F790E080E010979A
:1014F00021F0BD01C7010E94250AA1960FB6F894FC
:10150000DEBF0FBECDBFDF91CF911F910F91FF9036
:10151000EF90BF90AF909F908F900895695CDECF61
:10152000CF93DF93AC0170E060E02AE087E894E0BD
:101530000E94440AEC0169EC71E087E894E00E94A3
:10154000250A8C0F9D1FDF91CF910895462F50E003
:1015500070E060E02AE00C94440A8F929F92AF9270
:10156000BF92CF92DF92EF92FF920F931F93CF9390
:10157000DF937C018B014C0182E0880E911C5701A6
:10158000E5E0AE0EB11CD0E0C0E0F40161914F0186
:10159000C8010E94A60A6C016EE2C8010E9478028E
:1015A0008C0D9D1DC80FD91F8A149B0471F7F7017C
:1015B0006581C8010E94A60A8C0F9D1FDF91CF9103
:1015C0001F910F91FF90EF90DF90CF90BF90AF9061
:1015D0009F908F9008956BE587E894E00E947802D1
:1015E0000E940905AB01BC012AE087E894E00E9453
:1015F000440A82E691E00C946C036115710511F0C8
:101600000C94250A90E080E00895EF92FF920F93EA
:101610001F93CF93DF9300D000D000D0CDB7DEB7BB
:101620008C017B01DC0118968D919C91892BB1F185
:101630000E94EB0A89EE91E00E946C03F80160853C
:10164000718587E894E00E94FD0A6AE387E894E0E8
:101650000E947802C7010E94900AD8018D919C9146
:10166000119718966D917C91DC01ED91FC910088A9
:10167000F189E02DA701099521E0019709F020E00B
:10168000822F26960FB6F894DEBF0FBECDBFDF9136
:10169000CF911F910F91FF90EF9008950E94EB0A58
:1016A00088EF91E00E946C03F801648187E894E080
:1016B0000E94A60A6EE287E894E00E947802D801B0
:1016C00015966C9187E894E00E94A60A6EE287E87E
:1016D00094E00E947802F801668187E894E00E9415
:1016E000A60A6EE287E894E00E947802D801179675
:1016F0006C9187E894E00E94A60A69EC71E087E8A3
:1017000094E00E94250AF80180819181DC01ED912D
:10171000FC910684F785E02D27EC31E03A8329839C
:10172000D80114964D915D916D917C9117974B83E3
:101730005C836D837E83A701BE016F5F7F4F9BCF6C
:10174000FB01808191810E949531892B61F00E947B
:10175000430961E087E00E94EC096CEC71E086E6E9
:1017600095E00C94FD0A0E94430961E087E00E9425
:10177000EC0966ED71E0F3CFFB01808191810E945D
:10178000953121E0009709F420E020936604892B2D
:1017900061F00E94530961E087E00E94EC0960EE6D
:1017A00071E086E695E00C94FD0A0E944B0961E029
:1017B00087E00E94EC096AEE71E0F3CFFB018081C3
:1017C00091810E94953121E0009709F420E0209357
:1017D0006704892B71F061E085E00E94D50360E029
:1017E00087E00E94EC0964EF71E086E695E00C94D6
:1017F000FD0A60E085E00E94D50360E087E00E947A
:10180000EC096FEF71E0F1CFFB01808191810E94C3
:101810009531892B71F061E084E00E94D50360E08E
:1018200087E00E94EC096AE072E086E695E00C949D
:10183000FD0A60E084E00E94D50360E087E00E943A
:10184000EC0965E172E0F1CFAF92BF92CF92DF92E7
:10185000EF92FF920F931F93CF93DF9300D000D0AE
:10186000CDB7DEB78C016B017A018091860483339A
:10187000E9F45B016801C40ED51EC016D106A9F1BA
:101880000E945B078FE00E946607812F0E94660717
:10189000802F0E9466070F5F1F4F80E00E9466073F
:1018A000F50181935F010E945107E7CF843369F509
:1018B0000E945B0719830A838F2D8F778B83EC82BD
:1018C00064E070E0CE0101960E943707A70170E046
:1018D00060E0C6010E94F737E114F10421F0B7017E
:1018E000C6010E9437070E945107C7010F900F9051
:1018F0000F900F90DF91CF911F910F91FF90EF907C
:10190000DF90CF90BF90AF9008950E945B070F3F8C
:10191000110509F030F419820A831B8263E070E03C
:10192000D1CF17FD0BC019820A8333E016950795B6
:101930003A95E1F7007E08600B83F0CFC80126E0FE
:10194000969587952A95E1F7807E19830A8301157C
:10195000104C18F480618B83E1CF8861FCCFCF936A
:10196000DF931F92CDB7DEB72091FC0330E0322F1A
:101970002227260F371F90E0982F882741E050E05C
:10198000BE016F5F7F4F820F931F0E94240C8981DD
:101990000F90DF91CF910895CF93C82F462F61E02C
:1019A00070E00E94790861E070E08C2F0E94AF0C1B
:1019B0008111F9CFCF910895CF93C82F80E591E0A1
:1019C0000E945C0268E070E08C2FCF910C94CC0CEC
:1019D000CF93C82F80E591E00E945C0260E170E047
:1019E0008C2FCF910C94CC0CCF93DF93EC01888D8E
:1019F000843020F40E94E80C84E0888FDF91CF913E
:101A00000895CF93C82F80E591E00E945C0263E0C7
:101A100070E08C2FCF910C94AF0CCF93DF93EC013F
:101A20008C858430D0F40E94010D843189F08823A4
:101A300079F0883169F021E08C3159F4E881F9813D
:101A40000084F185E02DCE01099521E0892B09F470
:101A500020E0822FDF91CF91089580E0FBCFCF92DD
:101A6000DF92EF92FF92CF93DF93EC018C8584306D
:101A700068F40E94DC0C0E9409056B017C018C85D6
:101A80000E94010D811109C084E08C87DF91CF9104
:101A9000FF90EF90DF90CF90089561E070E080E0DC
:101AA00090E00E94D6040E940905AB01BC014C19CC
:101AB0005D096E097F098D859E85B0E0A0E048171D
:101AC00059076A077B07D8F28C850E94E80CDCCFA7
:101AD000CF93FC01C08D80E591E00E945C0260E242
:101AE00070E08C2F0E94CC0C62E070E08C2F0E9482
:101AF000AF0C84FD16C062E070E08C2F0E94AF0C2A
:101B000083FF0AC048E162E070E08C2F0E947908F0
:101B100080E090E0CF91089580E591E00E945C0222
:101B2000E3CF40E162E070E08C2F0E94790881E011
:101B3000F0CFCF93DF931F92CDB7DEB741E050E0F7
:101B4000BE016F5F7F4F90E080E00E94240C89818E
:101B50000F90DF91CF910895CF93DF93C4E1D0E050
:101B60000E94990D882361F061E070E080E090E0D0
:101B70000E94D6042197A1F780E0DF91CF910895CC
:101B800081E0FBCF1F93CF93DF931F92CDB7DEB7DA
:101B9000182F80E591E00E945C02812F0E9430089E
:101BA00027E0129FF0011124E659FB4F2281338177
:101BB000377041E050E0BE016F5F7F4F820F931F8F
:101BC0000E94240C89810F90DF91CF911F9108957D
:101BD000FC01808D843040F4218D328D232B21F047
:101BE0000E94C20D90E008958FEF9FEF0895CF936C
:101BF000DF93FC012485243028F08FEF9FEFDF91E5
:101C0000CF910895EC010190F081E02D0084F185E1
:101C1000E02D0995892B89F38C850E94C20D90E0F7
:101C2000EECFDA01E091FC03F0E0FE2FEE27E60FA5
:101C3000F71F90E0982F8827A901BD018E0F9F1FE5
:101C40000C94240C8F929F92AF92BF92CF92DF920E
:101C5000EF92FF921F93CF93DF93CDB7DEB72C9710
:101C60000FB6F894DEBF0FBECDBF2091860414E0FE
:101C7000222339F16B017C0180E591E00E945C0236
:101C80005E0127E0A20EB11C450110E063E070E0A8
:101C9000812F0E94AF0CF40181934F01882349F1F9
:101CA0001F5F143099F710E0F50181915F018D31CC
:101CB000D9F08831C9F08A518230B0F01F5F1430FA
:101CC00099F7812F2C960FB6F894DEBF0FBECDBFCB
:101CD000DF91CF911F91FF90EF90DF90CF90BF9059
:101CE000AF909F908F90089560E170E0812F0E94E7
:101CF000CC0CA12EB12C83EE93E00197F1F742E8D2
:101D000070E060E0812F0E9479084FEF62E070E0A0
:101D1000812F0E947908B601C114D10491F48091F9
:101D200021019091220101968115F0EC9F0708F4A2
:101D30005CC09093220180932101609121017091F8
:101D40002201812F0E94640886E0E5E3F1E0DE01D4
:101D5000119601900D928A95E1F7F70183818F77B3
:101D60008C8384818D8385818E83A7014E5F5F4F35
:101D700024E030E06CE070E0812F0E943E08B60164
:101D8000812F0E944F0826E030E0AE014F5F5F4F89
:101D900066E070E0812F0E943E0861E070E0812FD4
:101DA0000E94CC0C27E02A9DC0012B9D900D112490
:101DB0009C0126593B4F7901F9011182108222E0E2
:101DC00030E0AE01455F5F4F68E270E0812F0E9416
:101DD000110E8B859C85982789279827F701938377
:101DE00082831682158214826CCF80E090ECA1CFA2
:101DF000CF92DF92EF92FF920F931F93CF93DF93D7
:101E000000D000D000D0CDB7DEB78C016B017A01D5
:101E1000FC01808D843010F40E94E80C87EC91E086
:101E20009A838983F60182819381A481B5818B8312
:101E30009C83AD83BE83B701CE0101960E94220E22
:101E4000F801808F8430A0F4F586E486128E118E1E
:101E500081E026960FB6F894DEBF0FBECDBFDF91AE
:101E6000CF911F910F91FF90EF90DF90CF90089549
:101E700080E0EFCFAF92BF92CF92DF92EF92FF92CE
:101E80000F931F93CF93DF9300D000D000D0CDB736
:101E9000DEB7082F6B0180E591E00E945C029E0195
:101EA0002F5F3F4F7901590110E063E070E0812F0F
:101EB0000E94AF0CF50181935F01882341F11F5F00
:101EC000143099F710E0F70181917F018D31D1F045
:101ED0008831C1F08A518230A8F01F5F143099F721
:101EE000812F26960FB6F894DEBF0FBECDBFDF91CF
:101EF000CF911F910F91FF90EF90DF90CF90BF9007
:101F0000AF90089560E170E0812F0E94CC0CE12E2B
:101F1000F12C83EE93E00197F1F7402F70E060E041
:101F2000812F0E9479084FEF62E070E0812F0E94BC
:101F30007908B601CD2889F4809121019091220180
:101F400001968115F0EC9F0798F190932201809300
:101F500021016091210170912201812F0E9464086A
:101F600061E070E0812F0E94CC0C27E02E9DC00123
:101F70002F9D900D11249C0126593B4F7901F901A9
:101F80001182108222E030E0AE014B5F5F4F68E2C9
:101F900070E0812F0E94110E8D819E8198278927E4
:101FA0009827F7019383828316821582148298CF33
:101FB00080E090ECCACFCF92DF92EF92FF921F9316
:101FC000CF93DF93EC017B016A018C85843048F468
:101FD0000E94010D882319F08C850E94DC0C84E09E
:101FE0008C87F70182819381A481B5810097A10537
:101FF000B10551F490E080E0DF91CF911F91FF9007
:10200000EF90DF90CF9008958F3F9F4FAF4FBF4F1E
:1020100089F380918604811103C084E08C87EACF24
:1020200070E060E081E20E943A0F182F8C878430C4
:1020300008F780E591E00E945C02A7014E5F5F4FC8
:1020400024E030E06CE070E0812F0E943E08B60191
:10205000812F0E944F0864E070E0812F0E94CC0C19
:102060000E9409056B017C018C850E94010D87315E
:1020700009F18C31F9F0882309F4BCCF0E940905DD
:10208000AB01BC014C195D096E097F098D859E85E8
:10209000B0E0A0E084179507A607B70738F061E025
:1020A00070E080E090E00E94D604DECF8C850E9434
:1020B000E80CB3CF81E090E09FCF0F931F93CF93B5
:1020C000DF93EC018B01888D843010F40E94E80CC2
:1020D00080918604811107C094E0988FDF91CF91A1
:1020E0001F910F910895B80182E00E943A0F888FE6
:1020F000843030F41D870C871A8E198E81E0EECF64
:1021000080E0ECCF7F928F929F92AF92BF92CF925E
:10211000DF92EF92FF920F931F93CF93DF9300D044
:10212000CDB7DEB7782E8B014A01590122E030E0AD
:10213000AE014F5F5F4F64E270E00E94110EE980D4
:10214000FA80FE24EF24FE24E00EF11E9701377082
:1021500040918604072D10E0433309F042C0085F28
:102160001F4F102F0027110F110F110FC901800FE2
:10217000911F4733C9F1A9014A0D5B1D41305840F9
:1021800098F160E078E06B01C21AD30AA601B401AD
:102190000E946D07A5014C195D09B4016C0D7D1DF0
:1021A000C8010E946D07EA0CFB1CF982EA8222E05A
:1021B00030E0AE014F5F5F4F64E270E0872D0E9418
:1021C0003E080F900F90DF91CF911F910F91FF90DC
:1021D000EF90DF90CF90BF90AF909F908F907F90C7
:1021E0000895005F1F4FBDCFA501B401DACFEF9274
:1021F000FF921F93CF93DF9300D0CDB7DEB7182F98
:1022000022E030E0AE014F5F5F4F60E270E00E947D
:10221000110EE980FA80FE24EF24FE2422E030E053
:10222000AE014F5F5F4F60E270E0812F0E94110EA0
:1022300089819A81982789279827E816F90689F4D1
:1022400087E0189FF0011124E659FB4FF582E482E4
:10225000C7010F900F90DF91CF911F91FF90EF90EA
:1022600008957C01DBCF1F93CF93DF93182F80E578
:1022700091E00E945C02812F0E94F710EC0163E064
:1022800070E0812F0E94AF0C873121F08C3111F06A
:10229000D0E0C0E0CE01DF91CF911F910895CF93A0
:1022A000DF93EC018C85843060F40E94010D87314E
:1022B00011F08C3131F48C850E94331181159840D6
:1022C00088F3DF91CF910895FC018485843010F468
:1022D0000C94331190E080E008959F92AF92BF92EA
:1022E000CF92DF92EF92FF920F931F93CF93DF93E2
:1022F0008C015B01942EE52EFC01C688D788F08CFA
:1023000080E591E00E945C028F2D0E94F710C92D9C
:10231000DE2D8C179D0708F4EC019E01A501B60186
:102320008F2D0E948210F801868997898C0F9D1F3E
:10233000978B868BCE01DF91CF911F910F91FF90EC
:10234000EF90DF90CF90BF90AF909F9008958F92C5
:102350009F92AF92BF92CF92DF92EF92FF920F9334
:102360001F93CF936C015B018A01FC01C485C430CB
:10237000F0F57A014130584018F0E12C88E0F82E51
:1023800080E591E00E945C028C2F0E94F7104C01C6
:1023900063E070E08C2F0E94AF0C873111F08C311C
:1023A00049F58E149F0460F380E591E00E945C0281
:1023B0009701A50170E060E08C2F0E94821060E21E
:1023C00070E08C2F0E94CC0C62E070E08C2F0E9499
:1023D000AF0C84FD17C063E070E08C2F0E94AF0C3F
:1023E00081110BC081E090E0F6019383828310E0BD
:1023F00000E010C0F12CE12CD7CF80E591E00E94E5
:102400005C02E2CF40E162E070E08C2F0E9479082C
:10241000EF2841F3C801CF911F910F91FF90EF90EA
:10242000DF90CF90BF90AF909F908F900895FF92D4
:102430000F931F93CF93DF9300D0CDB7DEB7F82E65
:1024400022E030E0AE014F5F5F4F66E270E00E9435
:10245000110E09811A8110270127102722E030E090
:10246000AE014F5F5F4F66E270E08F2D0E94110E4C
:1024700089819A819827892798270817190749F48D
:10248000C8010F900F90DF91CF911F910F91FF9096
:1024900008958C01E3CF1F93CF93DF93182F87E02C
:1024A000189FE0011124C659DB4F8881998100975C
:1024B00061F480E591E00E945C02812F0E94171276
:1024C0002E81821B910999838883DF91CF911F917F
:1024D0000895FC018485843010F40C944B1290E034
:1024E00080E008954F925F927F928F929F92AF9279
:1024F000BF92CF92DF92EF92FF920F931F93CF93F1
:10250000DF9300D0CDB7DEB7782E6B014A01A82E3D
:10251000B12C27E0829FC0011124FC01E659FB4F3A
:102520007F010081118180E591E00E945C02081525
:10253000190554F4872D0E941712F70126818C018A
:10254000021B1109118300830115110529F563E0B0
:1025500070E0872D0E94AF0C843159F0882349F038
:1025600001E010E08C3111F410E000E011950195CC
:102570001109C8010F900F90DF91CF911F910F911A
:10258000FF90EF90DF90CF90BF90AF909F908F9093
:102590007F905F904F900895801691060CF484010F
:1025A00087E08A9DF0018B9DF00D1124E659FB4FC9
:1025B000E280F380C114D10451F12701F7E05F22DA
:1025C000872D0E943008840D951D209186042733A5
:1025D00009F453C09801240D351D2130384008F40A
:1025E0004CC020E038E0490184189508A401B601E8
:1025F0000E94240C2601480C591C6801C818D908EF
:10260000872D0E943008A601B2010E94240CE00E22
:10261000F11E87E08A9DF0018B9DF00D1124E65993
:10262000FB4FF382E28220813181201B310B318309
:1026300020838681800F912F911D8A3F910510F490
:10264000232BF1F487E08A9DF0018B9DF00D11247E
:10265000E659FB4F1682F982EA8222E030E0AE01B1
:102660004F5F5F4F68E270E0872D0E943E0860E494
:1026700070E0872D0E94CC0C7CCFA801B601C5CF9D
:10268000868377CFCF93DF93FC01218D328D211587
:10269000310529F48FEF9FEFDF91CF910895EC0181
:1026A000808D4217530708F0A9010E947212181674
:1026B000190684F7298D3A8D281B390B3A8F298FFB
:1026C000EBCF0F931F93CF93DF931F92CDB7DEB75E
:1026D000FC01218D328D232B41F48FEF9FEF0F9062
:1026E000DF91CF911F910F9108958C0141E050E04F
:1026F000BE016F5F7F4FFC01808D0E947212181621
:1027000019065CF7F801818D928D0197928F818F68
:10271000898190E0E4CFCF93DF931F92CDB7DEB7EE
:1027200041E050E0BE016F5F7F4FFC0184850E9455
:1027300072121816190634F4898190E00F90DF9117
:10274000CF9108958FEF9FEFF9CFFC0184858430FE
:1027500010F40C94721290E080E008950F931F9390
:10276000CF93DF9300D0CDB7DEB7FC0124852430B2
:10277000E0F48C0180E591E00E945C0222E030E010
:10278000AE014F5F5F4F60E170E0F80184850E9409
:10279000110E89819A819827892798270F900F9089
:1027A000DF91CF911F910F91089590E080E0F6CFD7
:1027B0000F931F93CF93DF9300D0CDB7DEB7FC010B
:1027C00024852430E0F48C0180E591E00E945C02D5
:1027D00022E030E0AE014F5F5F4F64E070E0F8014F
:1027E00084850E94110E89819A81982789279827CC
:1027F0000F900F90DF91CF911F910F91089590E06E
:1028000080E0F6CFDC0187EC91E08D939D9384E02E
:10281000FB0101900D928A95E1F70895EF92FF92E6
:102820000F931F93CF93DF9300D000D0CDB7DEB7C7
:102830008C017B01FB0184858430A8F087EC91E05A
:10284000F801918380831282138214821582C80159
:102850000F900F900F900F90DF91CF911F910F91DC
:10286000FF90EF90089580E591E00E945C0224E0E3
:1028700030E0AE014F5F5F4F6CE070E0F7018485A0
:102880000E94110EBE016F5F7F4FC8010E940214AB
:10289000DECF0F931F93CF93DF93CDB7DEB728978B
:1028A0000FB6F894DEBF0FBECDBF8C01D80159968C
:1028B0004D915C915A974115510551F0ED91FC9164
:1028C000048CF58DE02D70E060E0C8010995EECF35
:1028D000F801808D0E944B12892BB1F148E050E045
:1028E000BE016F5F7F4FD80158968C910E94721283
:1028F00018161906F4F4D801509684E0FE013196BA
:1029000001900D928A95E1F78D8190E0982F8827AC
:102910002E81820F911DF801958B848B8F81282F3A
:1029200030E0322F22278885820F932F911D928FBE
:10293000818F28960FB6F894DEBF0FBECDBFDF9112
:10294000CF911F910F91089590E080E0F2CF4F92C8
:102950005F926F927F928F929F92AF92BF92CF922F
:10296000DF92EF92FF920F931F93CF93DF93CDB738
:10297000DEB763970FB6F894DEBF0FBECDBF7C0104
:102980006B013A01FB0120E090E080E06AE03191C8
:10299000332309F461C040ED430F4A3008F04DC0C5
:1029A000689FA001699F500D1124CA01C097830F31
:1029B000911D37FD9A958F3F910549F340F3F7013B
:1029C000428153816481758180915C0590915D05A0
:1029D000A0915E05B0915F05481759076A077B070C
:1029E00009F40DC28701085F1F4F0E9409056F702F
:1029F00077277C5FC8010E945D10813009F004C216
:102A000087EC91E09A838983F70182819381A48185
:102A1000B5818B839C83AD83BE8345E350E0BE01CB
:102A20006F5F7F4FC8010E94CE08892BA9F5D12C7A
:102A3000C12CC8010E94F40C17C03E3209F0BFCF70
:102A4000233009F4BCCFD301A20FB11D12968C9391
:102A50002F5F90E080E09BCF233009F0B0CFF301EF
:102A60008583CC24C394D12CC60163960FB6F89409
:102A7000DEBF0FBECDBFDF91CF911F910F91FF90B1
:102A8000EF90DF90CF90BF90AF909F908F907F900E
:102A90006F905F904F9008950E940905F70177832A
:102AA000668342E050E0B7016A5F7F4FC8010E9431
:102AB0006D1181E090E09A83898342E050E0BE018D
:102AC0006F5F7F4FC8010E946D1180E091E09A8393
:102AD000898342E050E0BE016F5F7F4FC8010E94D2
:102AE0006D111A82198242E050E0BE016F5F7F4F84
:102AF000C8010E946D1142E050E0BE016F5F7F4F40
:102B0000C8010E946D1142E050E0BE016F5F7F4F2F
:102B1000C8010E946D115601F6018081882301F1E0
:102B20006501F60181912F01882311F08E32B1F4F5
:102B300046018A189B081814190474F48D8641E024
:102B400050E0BE01635F7F4FC8010E946D11A40178
:102B5000B501C8010E946D115201DECF6201E1CFC3
:102B60001D8641E050E0BE01635F7F4FC8010E94B7
:102B70006D11C12CDD24D394DA82C98242E050E089
:102B8000BE016F5F7F4FC8010E946D11DA82C9825A
:102B900042E050E0BE016F5F7F4FC8010E946D119F
:102BA000C8010E94680D892B09F441CFF3E0AF2ED4
:102BB000B12C230122E0420E511CD4C0F701428106
:102BC000538164817581808D918DA28DB38D48175D
:102BD00059076A077B0709F008C1848D958DC59751
:102BE00009F003C181A192A15DEFC52EDD24DA9425
:102BF0000C970CF4ADC04CE050E0BE016F5F7F4F0E
:102C0000C8010E9442138B819C81982789279827AD
:102C10009A8B898BF7014681578129813A81421726
:102C2000530709F0E7C097FFE5C08F7092703BEF44
:102C3000C32EDD24DA94892B09F08AC06F80788452
:102C40007624672476242AEFC22EDD24DA946114D8
:102C5000710409F47DC0D12CC12C8D819E819827EF
:102C600089279827C816D906F8F441E050E0BE013C
:102C7000635F7F4FC8010E9442134D85442331F0AA
:102C800050E070E060E0C8010E9442138D85811120
:102C9000ECCF44E050E070E060E0C8010E944213D5
:102CA000FFEFCF1ADF0AD9CF912C812C41E050E001
:102CB000BE016D5E7F4FC8010E9442134B89842F75
:102CC000807C09F06CC0442331F050E070E060E09B
:102CD000C8010E9442138B898111E8CF42E050E085
:102CE000BE01615F7F4FC8010E94421342E050E085
:102CF000BE01635F7F4FC8010E94421344E050E071
:102D000070E060E0C8010E94421342E050E0BE0162
:102D10006F5E7F4FC8010E9442138F859889498951
:102D20005A898115914009F043C0CD84DE84DC24AA
:102D3000CD24DC2481E0C816D104D1F541155440DE
:102D400009F04AC044E050E0B201C8010E944213B9
:102D500021E0A21AB10809F46CCEFFEFCF16DF060E
:102D600009F067CE0E9409053B014C01C8010E9491
:102D70004914181619060CF421CF0E94090566198A
:102D8000770988099909693873418105910548F5E2
:102D900062E370E080E090E00E94D604E7CF41E07B
:102DA00050E070E060E0C8010E9442131B8A93CF9C
:102DB00054274527542770E060E0C8010E94421361
:102DC000FFEF8F1A9F0A6814790409F06FCF96EF0E
:102DD000C92EDD24DA94BCCFE7EFCE2EDD24DA94C1
:102DE000B7CFCC24CA94DC2CB3CF6EEFC62EDD2433
:102DF000DA94AECF4CEFC42EDD24DA94A9CF8EEF57
:102E0000C82EDD24DA9430CED12CC12C2DCECF9219
:102E1000DF92EF92FF920F931F93CF93DF93CDB783
:102E2000DEB7AF970FB6F894DEBF0FBECDBF7C0103
:102E30006A0107EC11E01A8309831C861B8688EE61
:102E400093E0A0E0B0E08D879E87AF87B88B8FE3DB
:102E500091E09A878987188F0F8B198E1A8E1B8E97
:102E60001C8E84E089A31BA70AA71CA61DA61EA66C
:102E70001FA68091500590915105A0915205B091E7
:102E800053058EA39FA3A8A7B9A78B839C83AD836B
:102E9000BE8318861F82AE01465D5F4FCE0101964C
:102EA0000E94A71481309105B1F4D701ED91FC91F6
:102EB0000488F589E02D1DA30CA38CA59DA5AEA5C6
:102EC000BFA58EA39FA3A8A7B9A7A601BE016C5D4D
:102ED0007F4FC7010995AF960FB6F894DEBF0FBEBE
:102EE000CDBFDF91CF911F910F91FF90EF90DF90B9
:102EF000CF900895CF92DF92EF92FF920F931F939E
:102F0000CF93DF93CDB7DEB7AF970FB6F894DEBFA0
:102F10000FBECDBF8C016B017A0187EC91E09A83E3
:102F200089831B821C821D821E821C861B8648EEA2
:102F300053E060E070E04D875E876F87788B2FE30A
:102F400031E03A872987988F8F8B198E1A8E1B8EC6
:102F50001C8E24E029A39BA78AA71CA61DA61EA63B
:102F60001FA6D8011C968C91843060F40E94010D3C
:102F7000882321F0F80184850E94DC0C84E0D801CC
:102F80001C968C938091500590915105A09152050B
:102F9000B09153058EA39FA3A8A7B9A78B839C8349
:102FA000AD83BE8318861F82AE01465D5F4FB601BA
:102FB000CE0101960E94A7140097C1F0D801ED91AF
:102FC000FC910684F785E02D87EC91E09DA38CA30E
:102FD0008CA59DA5AEA5BFA58EA39FA3A8A7B9A7A5
:102FE000A701BE016C5D7F4FC8010995AF960FB672
:102FF000F894DEBF0FBECDBFDF91CF911F910F912F
:10300000FF90EF90DF90CF9008957F928F929F92E4
:10301000AF92BF92CF92DF92EF92FF920F931F93E6
:10302000CF93DF93CDB7DEB7A6970FB6F894DEBF88
:103030000FBECDBF8C01762E942E852E20E2A22EBF
:10304000CE0101967C01DC01EA2D1D92EA95E9F79B
:103050006801F3E4CF0ED11C87EC91E09AA389A319
:103060008FEF8BA38CA38DA38EA343E450E0BE010E
:103070006F5D7F4FC6010E94CE08019609F4BFC064
:1030800081E089838A8386E0B82EBB821C82D801C6
:1030900014966D917D918D919C9117970E94AC36FD
:1030A0006D837E838F83988789869A8680E890E0F7
:1030B0009C878B874CE150E0B701C6010E946D11DF
:1030C000FE0137968AE1DF011D928A95E9F74801F2
:1030D000B8E08B0E911CF401D70101900D92BA94C7
:1030E000E1F740E150E0B701C6010E946D11F70120
:1030F0001192AA94E9F796E0A92EB12C40E250E093
:10310000B701C6010E946D11F1E0AF1AB108B1F725
:1031100083E6898392E89A8393E59B838C8385E396
:103120008D8381E08E837F829DE3988797E09987E6
:103130008A8786E0F401DE011B9601900D928A9544
:10314000E1F78CE0898B8A8B60E272E0CE014396D6
:103150000E940738D8011B966C91CE0149960E94B7
:103160005F02F8016485CE014B960E945F02D80190
:103170001D966C91CE014D960E945F024EE150E08B
:10318000B701C6010E946D11B3E07B121EC082E33D
:10319000898384E08A83F80196859B8397859C8345
:1031A00090899D8391899E8396E39F838887828DF2
:1031B0008987838D8A87848D8B87858D8C874CE06A
:1031C00050E0B701C6010E946D1187E3898386E054
:1031D0008A8391E09B8393E09C838D838FE08E8331
:1031E0008AE38F838BE388878FEF898749E050E0FC
:1031F000B701C6010E946D11C6010E94680DA69616
:103200000FB6F894DEBF0FBECDBFDF91CF911F91F7
:103210000F91FF90EF90DF90CF90BF90AF909F9075
:103220008F907F9008950F931F93CF93DF93EC01BE
:10323000FB0101900020E9F78F01061B170B8A8123
:103240009B81A801480F591F2C813D812417350708
:1032500068F028813981A801820F931F0E94EE3700
:103260004A815B81400F511F5B834A83DF91CF917D
:103270001F910F9108956115710599F4DC01ED918D
:10328000FC91119712962D913C911397A9014F5FD4
:103290005F4F13965C934E931297E20FF31F1082C9
:1032A00008950C9413190F931F93CF93DF93EC01A0
:1032B00088819981009759F02A813B812617370729
:1032C00030F081E0DF91CF911F910F9108958B0134
:1032D0006F5F7F4F0E942437009759F0998388834E
:1032E0001B830A832C813D81232B59F7FC0110821B
:1032F000E8CF80E0E7CF85ED8093BC008091C103EB
:103300009091C203A091C303B091C4030796A11D7D
:10331000B11D23E0B695A795979587952A95D1F786
:103320002091BC0024FD03C01092BF03089540917A
:10333000C1035091C2036091C3037091C403452B34
:10334000462B472B69F30097A105B10541F02AE20E
:103350002A95F1F700C00197A109B109E1CF809149
:10336000C0030C94AA053F924F925F926F927F9296
:103370008F929F92AF92BF92CF92DF92EF92FF9285
:103380000F931F93CF93DF93CDB7DEB7EA970FB6B6
:10339000F894DEBF0FBECDBF7C012A013B0169015D
:1033A0000E9409054B015C0187010D5B1F4FC8019D
:1033B0000E944914181619069CF00E940905681904
:1033C00079098A099B09461657066806790608F4A2
:1033D00066C162E370E080E090E00E94D604E7CF2F
:1033E00042E250E0BE016F5F7F4FC8010E9442136E
:1033F00089818230D1F0312C832DEA960FB6F89472
:10340000DEBF0FBECDBFDF91CF911F910F91FF9017
:10341000EF90DF90CF90BF90AF909F908F907F9074
:103420006F905F904F903F900895F801848995893F
:103430008334910501F76D817E818F8198850E948B
:10344000AC364B015C01F60180829182A282B3828C
:1034500046E050E0B701685F7F4FCE014D960E9475
:10346000E137892B41F6F70180819181A281B381F7
:1034700088169906AA06BB0608F4BDCF84819581FB
:10348000A681B78188159905AA05BB0508F4B3CFB5
:1034900089899A89AB89BC8986879787A08BB18BEC
:1034A0004EEC50E070E060E0C8010E944213312C05
:1034B000C701829698AB8FA7F701B696FAABE9AB36
:1034C00008969CAB8BAB67019AE1C90ED11CBD96E7
:1034D000FEABEDABC701429698AF8FABFD97FAAF4D
:1034E000E9AF4701FEE18F0E911CF801818D928DAD
:1034F000181619060CF080CFC8010E94611383339F
:10350000910509F4B2C014F58130910509F464C045
:1035100044F4892B51F3C8010E946113AC01552773
:1035200075C08330910509F462C00697A1F7C80100
:103530000E946113B82E44E050E0B401C8010E941B
:103540004213EB2DE450FF0BAF0160C08A339105AD
:1035500009F45FC084F585339105B1F1C697D9F6BA
:10356000C8010E9461135C01B601CE0189960E94D8
:1035700002148BA59CA5ADA5BEA5892B8A2B8B2BF0
:10358000B1F0EDA9FEA94080518062807380B60140
:10359000CE0183960E9402148DA19EA1AFA1B8A571
:1035A000A501481659066A067B0609F0B8CF44E023
:1035B00050E0B60118C08B33910509F440C08F3F2D
:1035C000910509F492CFA7CFC8010E946113C801E9
:1035D0000E946113382E89CFC8010E94611344E014
:1035E00050E06FA978ADC8010E9442137ECFC80198
:1035F0000E946113B82E44E050E069AD7AADC80175
:103600000E9442138B2D8450990BAC0170E060E056
:10361000EACFC8010E94611344E050E069A97AA989
:10362000C8010E944213F70166A177A180A591A568
:103630000E94AC3666A377A380A791A756CFC80196
:103640000E94611344E050E06BA97CA9C8010E946C
:103650004213F70162A573A584A595A50E94AC3617
:1036600062A773A784A795A740CFC8010E946113E2
:1036700044E050E06FA578A9C8010E944213F70109
:1036800062A173A184A195A10E94AC3662A373A329
:1036900084A395A366A777A780AB91AB26CF3324ED
:1036A0003A94AACE0F931F93CF93DF93CDB7DEB793
:1036B00028970FB6F894DEBF0FBECDBF8C01CB01AB
:1036C0004AE0BE016F5F7F4F0E94E331BE016F5F32
:1036D0007F4FC8010E94131928960FB6F894DEBFD9
:1036E0000FBECDBFDF91CF911F910F9108953F92F3
:1036F0004F925F926F927F928F929F92AF92BF9202
:10370000CF92DF92EF92FF920F931F93CF93DF93AD
:10371000CDB7DEB7A1970FB6F894DEBF0FBECDBF11
:103720005C010DB71EB719A308A360E070E0CB01E0
:103730000E94D604D50191968D919C919297912CDF
:10374000029709F4C4C390968C9190978F5F9096DE
:103750008C9390975E962D913C91232B19F0992490
:103760009394AEC38330D8F7F501828593850E9488
:103770007E09882309F484C38E010F5F1F4F38012F
:10378000D5011A96ED91FC9180819181DC01ED913A
:10379000FC910084F185E02D0995181619060CF0AE
:1037A0006FC3D5011A96ED91FC9145E050E0BE0142
:1037B000695E7F4F808191810E941505009701F31A
:1037C000059709F074C0888D998D982789279827C7
:1037D000998F888FEA8CFB8CFE24EF24FE24FB8ECD
:1037E000EA8E892B09F463C08F89811174C00E940D
:1037F0000905F501608B718B828B938B21A132A11E
:103800008A8D9B8D232B09F062C0288D398D213044
:10381000310509F05CC089309105E1F1883C9105E2
:1038200019F0049709F048C00E94EB0A8FEF92E06C
:103830000E946C03D50150964D915D916D917C91E4
:10384000539758968D919D910D90BC91A02D481B3A
:10385000590B6A0B7B0B2AE087E894E00E94440A2C
:103860008AEF92E00E94340AF50180899189A28949
:10387000B389808F918FA28FB38F01E010E012A3E4
:1038800001A3C5010E94222660E070E0CB010E94E6
:10389000D60476CF0E94EB0A8BE294E00E94340AB1
:1038A00083E090E0D50192969C938E939197D501F9
:1038B0001A968D919C9101C30E94EB0A84E194E0D9
:1038C0000E946C038A8D9B8D0E94900AF0CF059711
:1038D00009F056CFECCFB1E0EB16FB0690F00E945A
:1038E000EB0A83E094E00E946C038A8D9B8D0E941A
:1038F000900AF50112A211A2828593850E94910976
:103900003FCF8DB69EB6C70101960DB71EB7081BF7
:10391000190B0FB6F8941EBF0FBE0DBF0F5F1F4FE0
:10392000D5011A96ED91FC91A701B8018081918192
:103930000E9415058E159F0509F064C0EA8DFB8D68
:10394000E00FF11F10820E940905F501608B718B59
:10395000828B938B8F89843109F4C7C0E8F48F3050
:1039600009F4C3C0813109F45FC2863009F080C216
:10397000488D598DD12CC12CF12CE12C08EC10E094
:1039800030E020E060E0C5010E9470200FB6F8949E
:103990009EBE0FBE8DBEF4CE8932F1F0873309F49E
:1039A00058C28D3109F064C281A192A1892B01F71F
:1039B0000E94EB0A8DEF93E00E94340A01E010E0D0
:1039C000F50112A301A3C5010E94222660E070E068
:1039D000CB010E94D604CCCF86859785892B39F4FC
:1039E00080E490E00E94CC2FF50197878687EA8CCF
:1039F000FB8CE00EF11E1A830983FC82EB820E150C
:103A00001F0530F00FB6F8949EBE0FBE8DBE4FCF8F
:103A100040E450E0B801D5011E968D919C910E9422
:103A20000E38D5011E96ED91FC9117AEC3010E9490
:103A30000026FC018081918100E510E08E159F0534
:103A400070F489819A81009709F44BC02B813C81E5
:103A50008217930708F045C00E94B3318B010E9482
:103A6000EB0A8DEE93E00E946C03D5011E966D91DA
:103A70007C9187E894E00E94FD0A6AE387E894E07D
:103A80000E947802C8010E94900AF5018285938500
:103A90000E949109D5011A96ED91FC911B971E96F3
:103AA0008D919C911F9791878087138702879296AB
:103AB0001C921E9291970E940905DC01CB01885847
:103AC0009341A109B109F501848B958BA68BB78B26
:103AD000808B918BA28BB38B808F918FA28FB38FB2
:103AE00055CF60E070E0CB01B9CF888D998DD501BD
:103AF0005F969C938E935E974A8C5B8C6801C40C96
:103B0000D51C1D8F0C8FDF8ECE8E0C151D0508F079
:103B100013C1F801E080F180CE014C960E9400268E
:103B2000DC018D919C918C159D0508F005C18C8D53
:103B30009D8DFC012081213459F401960E9495311C
:103B40004EE0342E380E069744F033243A9405C0E4
:103B5000CE014C960E941326382EF6E7EF16F2E7B8
:103B6000FF0609F406C138F531E6E31632E7F3063D
:103B700009F4E6C044E6E41642E7F40609F478C026
:103B800050E7E5165DE6F50609F037C18C8D9D8D91
:103B90008C159D0508F0D0C0FC0120812134A9F5C9
:103BA00001960E9495313EE0F32EF80E069794F1AF
:103BB000FF24FA942FC084E6E81687E7F80609F494
:103BC000A2C096E7E91697E7F90609F4E9C0A1E66D
:103BD000EA16A7E7FA0609F010C1CE014C960E943A
:103BE0000026DC018D919C918C159D0508F0A4C0E8
:103BF00061E0832D0E940304CE014C960E9413269F
:103C0000BC01832D0E943F0497C0CE014C960E94B8
:103C10001326F82ECE014C960E9400260C8D1D8D89
:103C200067E272E0C8010E94FE3760E0892B79F0FC
:103C30006AE272E0C8010E94FE37892B39F06EE219
:103C400072E0C8010E94FE37892B49F461E08F2D94
:103C50000E940304CE014C960E94002697CF62E397
:103C600072E0C8010E94FE37892BA1F762E0EFCF16
:103C70007A8A698A1C8A1B8A00E110E01E8B0D8BF0
:103C800065E372E0CE0141960E941319032D10E006
:103C9000B801CE0141960E94521BF801E15CFC4F35
:103CA0008491F801E55DFC4FF490095E1C4FF8012A
:103CB000049160E070E0002389F081110E94AC0360
:103CC000E02FF0E0EE0FFF1FE35FFC4FA591B491F2
:103CD000EC91FE2261E070E009F460E0CE014196D3
:103CE0000E94521B0B891C890150110929893A89AC
:103CF000D12CC12CF12CE12C50E040E064E1C50155
:103D00000E94702019C0CE014C960E940026DC0152
:103D10008D919C918C159D0578F461E0832D0E9416
:103D20000304CE014C960E94132661E0892B09F40E
:103D300060E0832D0E94D503F501178E168E26CEE6
:103D40007A8A698A1C8A1B8AE0E1F0E0FE8BED8B9F
:103D500068E372E0CE0141960E941319632D70E072
:103D6000CE0141960E94521B832D0E949C04BC01EF
:103D7000B5CF3982BFE1B315F8F2E32DF0E0EE0FD5
:103D8000FF1FED5AFC4F2591349121153105A1F209
:103D9000E2E02B353E0781F2C301F9010995CCCF52
:103DA000CE014C960E9400268C8D9D8D9C01201B7F
:103DB000310B421A530A9A8389835C824B825E825A
:103DC0004D82398AFFE1F31508F4B6CFE32DF0E018
:103DD000EE0FFF1FED56FC4F259134912115310553
:103DE00009F4AACF02E02A35300709F4A5CFB301C0
:103DF000CE014196F90109959FCF0E94EB0A83ED10
:103E000093E00E946C03C8010E94ED25D5015E96E7
:103E10004D915C91D12CC12CF12CE12C02E010E0F1
:103E200030E020E060E06BCF8A8D9B8D800F911F8A
:103E30001A8309839C838B830817190708F0A6CD82
:103E4000C3010E940026D5015F961C921E925E97C8
:103E50009DCD8A8D9B8D892B09F498CD0E94EB0A0C
:103E600084EE93E00E946C03C8010E94ED258ECD84
:103E7000F50112A211A2828593850E94910986CD37
:103E80000E9409052B013C01F501828593850E9462
:103E90007E09D50191962D913C9192972130310563
:103EA00009F094C0F501811132C0408E518E628EAE
:103EB000738E12A211A2828593850E949109912C82
:103EC000D50190968C919097815090968C93892DE6
:103ED000E8A1F9A10FB6F894FEBF0FBEEDBFA19601
:103EE0000FB6F894DEBF0FBECDBFDF91CF911F910B
:103EF0000F91FF90EF90DF90CF90BF90AF909F9089
:103F00008F907F906F905F904F903F900895808941
:103F10009189A289B38993018201081B190B2A0B8D
:103F20003B0BD901C801893116EF9107A105B105F5
:103F300060F00E94EB0A8CE494E00E94340AD50100
:103F400092961C921E929197B3CC893C9F4AA105F0
:103F5000B10598F4F50184899589A689B7899301FB
:103F60008201081B190B2A0B3B0BD901C801893CA4
:103F70009F4AA105B10508F4F2CBF501808D918D22
:103F8000A28DB38D93018201081B190B2A0B3B0BE9
:103F9000D901C80181379741A105B10508F4DFCBEC
:103FA000D12CC12CF12CE12C10E000E030E020E01D
:103FB00050E040E066E0C5010E947020D5015896AF
:103FC0004D925D926D927C925B97C9CB232B09F049
:103FD000C6CBF501408D518D628D738D93018201A9
:103FE000041B150B260B370BB901A8018823B1F070
:103FF000413757416105710508F4B1CB0E94EB0AC6
:104000008EE394E00E94340AD5011A968D919C911A
:104010000E949109F50112A211A251CF49385341D2
:104020006105710508F49BCB1A968D919C910E94B5
:104030009109F50102851385D8011A966D917C913D
:10404000C8010E94050BF801848781110DC082858B
:1040500093858035910599F460E97FE1C8010E945C
:10406000050BD8011C968C93D8011C969C9091103E
:1040700011C0F501408E518E628E738E21CF803932
:104080009F4191F760E570E0C8010E94050BF801BF
:104090008487EACF81E090E0D5015D969C938E9372
:1040A0005C971C962D913C91F90101900020E9F755
:1040B00031978F01021B130BD12CC12CF12CE12C59
:1040C00041E050E06DE1C5010E947020F501848956
:1040D0009589A689B789808F918FA28FB38FF0CEF3
:1040E0002F923F924F925F926F927F928F929F9208
:1040F000AF92BF92CF92DF92EF92FF920F931F93F6
:10410000CF93DF93CDB7DEB7C854D1090FB6F8947B
:10411000DEBF0FBECDBF4C0168AF5AAF49AF279687
:104120003FAF2EAF279721961FAF0EAF219729964D
:10413000FFAEEEAE29972396DFAECEAE2397DC011D
:104140001A968D919C910E947E09882309F4BBC127
:10415000B8ADBB2351F0B63041F0BD3131F0F401C0
:1041600081A192A1019709F0AEC188AD8F50863030
:10417000A0F5D40154964D915D916D917C91579726
:104180005096CD90DD90ED90FC905397C416D506D7
:10419000E606F70610F46A017B01B2E4CB0ED11CEF
:1041A000E11CF11C0E940905A7019601261B370B93
:1041B000480B590BDA01C901B7FDAAC0C4010E941E
:1041C000771B0E940905A7019601261B370B480B98
:1041D000590BDA01C901B7FFF1CFF4018081918158
:1041E000019709F0B7C082E090E09183808322813B
:1041F0003381448155816681778180859185A0E0F6
:10420000FE017A960E94123709F477C1FBABEAAB44
:104210001DAA1CAA88E190E09FAB8EAB65E272E01C
:10422000CE01C2960E941319D40112964C90129797
:1042300013965C90139714966C90149715967C9037
:1042400015971696BC91BBAFF401F781FCAFD40172
:1042500018962C90189719963C90198E9201A301EC
:104260006BAD7F2FC101A0E00E94123709F459C045
:10427000FE0179962596FFAFEEAF259727E130E056
:104280003EAF2DAF8AE0A82EB12CC12CD12CE12C51
:10429000F12C00E010E09201A3016BAD7CADC101F7
:1042A0000E94B336F901E35CFD4F80812596AEADE7
:1042B000BFAD25978E932596BFAFAEAF2597EDADD9
:1042C000FEAD3197FEAFEDAF9AE0A92EB12CC12C17
:1042D000D12CE12CF12C00E010E09201A3016BAD98
:1042E0007CADC1010E94B53629013A016BAF7CAFAC
:1042F0001C01A0E00E94123721F04DAD5EAD452BB0
:1043000009F66DAD7EAD6C0F7D1F6E5F7F4F0EC0E9
:10431000D40190968C91811160CFC4010E94771BCB
:104320005CCF80E3888FBE01685E7F4FCE01C2966E
:104330000E943B190CA91DA9015011092AA93BA9EA
:10434000D12CC12CF12CE12C50E040E065E1C401FE
:104350000E94702029AD3AAD232BB9F4D4015E96AA
:104360000D90BC91A02DBAAFA9AFAB2B71F4F401A5
:10437000848D958D019609F4D5C0958F848FF401B5
:10438000048CF58DE02DFAAFE9AF27962EAD3FAD49
:10439000279721960EAD1FAD21970B5F1F4F232B43
:1043A00011F405E010E029964EAD5FAD299790E03D
:1043B00080E0452B21F023968EAD9FAD2397080F0B
:1043C000191F58AD598389AD9AAD98278927982729
:1043D0009B838A8321968EAD9FAD21972396AEADA8
:1043E000BFAD23978A0F9B1F9827892798279D8306
:1043F0008C83D4011A96ED91FC9180819181DC012E
:10440000ED91FC910280F381E02D45E050E0BE018A
:104410006F5F7F4F09957C0160E070E0CB010E94E7
:10442000D604B8ADBB2309F444C02196EEADFFAD70
:104430002197EF2BE1F0D4011A96ED91FC91808148
:104440009181DC01ED91FC910280F381E02D2196B8
:104450004EAD5FAD219727966EAD7FAD279709953D
:10446000E80EF91E60E070E0CB010E94D6042396AE
:10447000EEADFFAD2397EF2BE1F0D4011A96ED914D
:10448000FC9180819181DC01ED91FC910280F381AE
:10449000E02D23964EAD5FAD239729966EAD7FAD8F
:1044A00029970995E80EF91E60E070E0CB010E94A3
:1044B000D604E016F106D9F1F40112A211A2828508
:1044C00093850E949109C85BDF4F0FB6F894DEBF59
:1044D0000FBECDBFDF91CF911F910F91FF90EF9055
:1044E000DF90CF90BF90AF909F908F907F906F9014
:1044F0005F904F903F902F900895FA83E9831C823C
:104500001B8284E090E09E838D836BE372E0CE019A
:1045100001960E9413190B811C81015011092981F8
:104520003A810ECF81E090E0958F848F28CF0E9452
:104530000905D40154966D937D938D939C93579761
:10454000C2CFCF92DF92EF92FF920F931F93CF9340
:10455000DF93CDB7DEB7C658D1090FB6F894DEBFEA
:104560000FBECDBF8C01CE010196CF57DF4F99838F
:104570008883C158D040CD57DF4F19821882C35865
:10458000D04080E890E0CB57DF4F99838883C558AF
:10459000D04061E672E0CE018F579F4F0E94131901
:1045A00066E070E0CE018F579F4F0E94521BB8010A
:1045B000CE018F579F4F0E943B19CD57DF4F088187
:1045C0001981C358D04001501109CF57DF4F2881BE
:1045D0003981C158D040D12CC12CF12CE12C50E0B4
:1045E00040E064E184E296E00E947020CA57DF4F09
:1045F0000FB6F894DEBF0FBECDBFDF91CF911F91F4
:104600000F91FF90EF90DF90CF900895CF92DF92BF
:10461000EF92FF920F931F93CF93DF93CDB7DEB747
:10462000C658D1090FB6F894DEBF0FBECDBF7C01CE
:104630008B01CE010196CF57DF4F99838883C158F4
:10464000D040CD57DF4F19821882C358D04080E840
:1046500090E0CB57DF4F99838883C558D04061E6FF
:1046600072E0CE018F579F4F0E941319B701CE0100
:104670008F579F4F0E94521BB801CE018F579F4FFB
:104680000E94521BCD57DF4F08811981C358D0407B
:1046900001501109CF57DF4F28813981C158D040CF
:1046A000D12CC12CF12CE12C50E040E064E184E2FB
:1046B00096E00E947020CA57DF4F0FB6F894DEBF15
:1046C0000FBECDBFDF91CF911F910F91FF90EF9063
:1046D000DF90CF9008958F929F92AF92BF92CF922A
:1046E000DF92EF92FF920F931F93CF93DF93CDB79B
:1046F000DEB7C75AD1090FB6F894DEBF0FBECDBFE3
:104700000E9427096B017C01CE0101964C01CE5518
:10471000DF4F99838883C25AD040CC55DF4F19822E
:104720001882C45AD04020E8A22EB12CCA55DF4FBF
:10473000B982A882C65AD04061E672E08F559F4F79
:104740000E94131961E070E0CE018E559F4F0E94C8
:10475000521B8E010F571F4F23E045E0C701B601E2
:104760000E94AE2FB801CE018E559F4F0E941319A3
:10477000CC55DF4F08811981C45AD040015011092E
:10478000CE55DF4F28813981C25AD040D12CC12C5F
:10479000F12CE12C50E040E064E184E296E00E94DC
:1047A00070200E945B098C01CE55DF4F9982888270
:1047B000C25AD040CC55DF4F19821882C45AD0401B
:1047C000CA55DF4FB982A882C65AD04061E672E06E
:1047D000CE018E559F4F0E94131963E070E0CE0109
:1047E0008E559F4F0E94521B4AE0BE016F577F4F6C
:1047F000C8010E940B32BE016F577F4FCE018E550C
:104800009F4F0E941319CC55DF4F08811981C45A5C
:10481000D04001501109CE55DF4F28813981C25A4D
:10482000D04050E040E064E184E296E00E947020D5
:10483000C955DF4F0FB6F894DEBF0FBECDBFDF9175
:10484000CF911F910F91FF90EF90DF90CF90BF908D
:10485000AF909F908F9008951F920F920FB60F9276
:1048600011242F933F934F935F936F937F938F9375
:104870009F93AF93BF93EF93FF9387E894E00E94D9
:10488000FD02FF91EF91BF91AF919F918F917F9129
:104890006F915F914F913F912F910F900FBE0F90AD
:1048A0001F9018951F920F920FB60F9211242F93FD
:1048B0008F939F93EF93FF93E0919704F091980467
:1048C0008081E0919D04F0919E0482FD1BC0908147
:1048D0008091A0048F5F8F732091A104821741F013
:1048E000E091A004F0E0E957FB4F958F8093A0047E
:1048F000FF91EF919F918F912F910F900FBE0F908D
:104900001F9018958081F4CF1F920F920FB60F92CF
:1049100011242F933F938F939F93AF93BF938091D5
:10492000E8039091E903A091EA03B091EB03309181
:10493000E70323E0230F2D3758F50196A11DB11D84
:104940002093E7038093E8039093E903A093EA039D
:10495000B093EB038091EC039091ED03A091EE03F3
:10496000B091EF030196A11DB11D8093EC039093CC
:10497000ED03A093EE03B093EF03BF91AF919F912E
:104980008F913F912F910F900FBE0F901F90189510
:1049900026E8230F0296A11DB11DD2CF1F920F92C0
:1049A0000FB60F9211242F933F934F935F936F9302
:1049B0007F938F939F93AF93BF93EF93FF938091D8
:1049C000B900887F803609F44AC0F0F5883209F4CE
:1049D000A7C018F5803109F49BC0B8F4882309F406
:1049E000F9C0883009F494C0FF91EF91BF91AF9165
:1049F0009F918F917F916F915F914F913F912F91F7
:104A00000F900FBE0F901F901895883109F488C041
:104A1000803251F78093BD0314C0803409F49DC0E7
:104A200040F48033B9F38833F9F68093BD0385EC05
:104A3000B0C0803509F485C0883509F496C0883443
:104A400099F60E947B19D0CF883909F48CC038F5CB
:104A5000883729F050F4883611F0803729F683E042
:104A60008093BF031092980357C0883809F47BC025
:104A7000803919F0803809F0B7CF809198038032DF
:104A800008F071C0E091980381E08E0F8093980345
:104A90008091BB00F0E0E858FC4F80833DC0803B34
:104AA00039F0E0F4803A09F479C0883A09F09CCFF3
:104AB00084E08093BF031092770310927603E09115
:104AC000F203F091F30309958091760381110FC0F1
:104AD00081E0809376031092560309C0803C09F46C
:104AE000A6CF883C09F4A3CF883B09F07DCFE091A5
:104AF000770381E08E0F80937703F0E0EA5AFC4F52
:104B000080818093BB00909177038091760329C0C8
:104B100080919A038093BB0085EC8093BC0064CFA6
:104B20009091BC038091BB03981758F5E091BC03AA
:104B300081E08E0F8093BC03F0E0E556FC4F80814E
:104B4000E9CFE091BC0381E08E0F8093BC0380919C
:104B5000BB00F0E0E556FC4F80839091BC03809150
:104B6000BB039817C8F285E8D8CFE091BC0381E079
:104B70008E0F8093BC038091BB00F0E0E556FC4FA4
:104B800080838091BE0381115CCF81E08093990383
:104B900084EA8093BC001092BF0326CF85EC8093FB
:104BA000BC001092BF0380919803803230F4E091F2
:104BB0009803F0E0E858FC4F10826091980370E091
:104BC000E091F003F091F10388E793E009951092EA
:104BD00098030ACF1092BD0334CFCF93DF93BC016B
:104BE00087E894E00E94250AEC0169EC71E087E80F
:104BF00094E00E94250A8C0F9D1FDF91CF910895AC
:104C0000DC01ED91FC911197309761F012962D9196
:104C10003C911397E217F30728F401900020E9F77D
:104C2000ED93FC930895FC0180819181009739F008
:104C3000228133818217930710F40C94953190E010
:104C400080E00895AF92BF92CF92DF92EF92FF92F1
:104C50000F931F93CF93DF93CDB7DEB7C05CD1091D
:104C60000FB6F894DEBF0FBECDBF5C01CE018558F4
:104C70009F4FC554DF4F99838883CB5BD040C3548B
:104C8000DF4F19821882CD5BD04080E490E0C154A0
:104C9000DF4F99838883CF5BD0406EE472E0CE0112
:104CA00085549F4F0E94131963E572E0CE0185542D
:104CB0009F4F0E943B194AE750E06DE671E0CE013C
:104CC00001960E94DA31C354DF4FC880D980CD5B92
:104CD000D040C554DF4FE880F980CB5BD0400AE775
:104CE00010E09E012F5F3F4F50E040E061E1C501C1
:104CF0000E947020C054DF4F0FB6F894DEBF0FBE85
:104D0000CDBFDF91CF911F910F91FF90EF90DF907A
:104D1000CF90BF90AF900895E7E8F4E0138212823D
:104D200088EE93E0A0E0B0E084839583A683B78308
:104D300029E631E03183208325EC30E03587248774
:104D400024EC30E03787268720EC30E0318B208B55
:104D500021EC30E0338B228B22EC30E0358B248B3E
:104D600026EC30E0378B268B118E128E138E148E2C
:104D7000E4E2F5E01382128284839583A683B783ED
:104D80008BE791E091838083E0E3F5E087EC91E0AD
:104D9000918380831282138214821582E6E3F5E008
:104DA000918380831282138214821582ECE3F5E0F2
:104DB000918380831282138214821582E2E4F5E0EB
:104DC000918380831282138214821582E8E4F5E0D5
:104DD000918380831282138214821582E4E5F5E0C8
:104DE000918380831282138214821582EEE4F5E0AF
:104DF000918380831282138214821582EAE5F5E0A2
:104E0000918380831282138214821582E0E6F5E09A
:104E1000918380831282138214821582E9E6F6E080
:104E2000918380831282138214821582EAE5F6E070
:104E30001382128229E931E03183208324E0248720
:104E400028EE33E036872587ADE4B6E013969C93D1
:104E50008E93129714961D921D921D921C92179775
:104E600019961C921E9218971B961C921E921A97C6
:104E70001C961C921C971196FC93EE9340E757E109
:104E800060E070E04483558366837783E4E2F6E074
:104E90001182108212821382148215821682178266
:104EA00010861186B387A287158614861786168604
:104EB000108A118A128A138A148A158A168A178A06
:104EC000108E118E128E138E158E148E178E168ED6
:104ED00010A212A211A28FEF9FEF9093230680934E
:104EE0002206E6E6F5E0138212828DE891E09183D6
:104EF000808387E2848380E1818782E082871386D2
:104F00000895CF93DF93CDB7DEB7E3970FB6F8944C
:104F1000DEBF0FBECDBF789484B5826084BD84B5FA
:104F2000816084BD85B5826085BD85B5816085BDA4
:104F300080916E00816080936E001092810080915C
:104F400081008260809381008091810081608093E4
:104F50008100809180008160809380008091B10009
:104F600084608093B1008091B00081608093B00034
:104F700080917A00846080937A0080917A008260C8
:104F800080937A0080917A00816080937A0080918A
:104F90007A00806880937A001092C10061E083E01B
:104FA0000E9403041092F7031092F6031092F50387
:104FB0001092F4030E948C0585E792E09093F3032E
:104FC0008093F20386E792E09093F1038093F003DD
:104FD00010926B0580917005823018F098E09093E4
:104FE0006B0580936E0562E370E080E090E00E94C4
:104FF000D6046091710586E695E00E94500668EE41
:1050000073E080E090E00E94D60460E386E695E0DD
:105010000E94BC090BE416E4C8010197F1F760E3B4
:1050200086E695E00E94BC09C8010197F1F760E3AC
:1050300086E695E00E94BC0983E592E00197F1F7CE
:1050400060E286E695E00E94BC0960916B056062B3
:1050500040E086E695E00E94D50984E080936C05E7
:1050600040E06CE086E695E00E94D50940E061E012
:1050700086E695E00E94D5090BE31FE1C801019780
:10508000F1F782E080936D0540E066E086E695E00A
:105090000E94D50940E062E086E695E00E94D509CD
:1050A000C8010197F1F788E08093710560E086E61A
:1050B00095E00E94500640E061E086E695E00E949F
:1050C000D509C8010197F1F740E062E086E695E076
:1050D0000E94D509C8010197F1F760E080E00E94C5
:1050E000EC0964E672E086E695E00E94FD0A61E064
:1050F00080E00E94EC0967E672E086E695E00E9497
:10510000FD0A0E94EB0A8CEE92E00E94340A8EEFB8
:10511000809347069DEE909348062AEB209349061C
:1051200080934A0680934B0690934C0620E031E032
:10513000D9010D900020E9F79D0121503140A0E0F8
:10514000B1E0E1E0F0E0AD014050514042175307BB
:1051500084F4AF014F5F5F4F6D91EC5DF94F83A118
:10516000862783A34630510514F041E050E0FA0150
:10517000EACF80915E0481112AC0109246041092F9
:10518000450488EE93E0A0E0B0E08093470490935C
:105190004804A0934904B0934A048FE391E09093AC
:1051A00044048093430487EC91E0909352048093ED
:1051B000510410925304109254041092550410920A
:1051C000560484E080935B0481E080935E0480E079
:1051D00094E09093FF038093FE038091FD0381117F
:1051E000ADC060E372E080E090E00E94D604DFB6DC
:1051F000F89401E213E0E5E3EE2EE3E0FE2E809169
:10520000FB03811125C0F8018491F7019491E82FE7
:10521000F0E0EE0FFF1FEF52FD4FA591B4918C917E
:10522000982321F461E08AE00E94D50361E08AE0DE
:105230000E9403048CB580618CBD8CB580648CBDEC
:1052400061E08DE00E94030461E08BE00E940304B2
:105250008091FB038F5F8093FB03DFBEF801049115
:10526000E02FF0E0EE0FFF1FE953FD4F8591949181
:105270009093FA038093F903F701E490E092F80326
:1052800061E08AE00E9403040E94510780E591E0FA
:105290000E945C0284E38093860480E80E941D08DB
:1052A0000E94AC0D882309F432C288E00E941D08D8
:1052B0000E94990D883009F02AC280E10E941D08E1
:1052C0000E94990D803109F022C280E00E941D08E1
:1052D0000E94990D182F81111AC241E050E0BE01C1
:1052E0006F5F7F4F8FE190E00E94240C89818330B3
:1052F00009F00DC280E48093FC0342E06EE170E0AF
:10530000812F0E94790842E06FE170E0812F0E94B6
:1053100079081F5F143089F740E06EE170E0812F5B
:105320000E94790840E06FE170E0812F0E947908C7
:105330001F5F183089F781E08093FD0380E591E0DD
:105340000E945C0246E050E067E476E089E090E08D
:105350000E946D0787EC91E09A8389831B821C82EF
:105360001D821E8244E050E0BE016D5F7F4F8FE0E2
:1053700090E00E946D070091FE031091FF03D80199
:1053800092961D921D921D921C929597F80116A25D
:1053900017A210A611A69A961D921D921D921C92FC
:1053A0009D9780E69AEEA0E0B0E086AB97ABA0AF09
:1053B000B1AF80EA9FE0A0E0B0E082AF93AFA4AFCE
:1053C000B5AFD801189686E0FD01282F11922A95D5
:1053D000E9F79801225F3F4F94E1F90111929A9504
:1053E000E9F7E7E4F6E001900D928A95E1F72C5C8D
:1053F0003F4F39AB28ABD9011C920E943D312FECB5
:1054000037E040E050E00E948B35DC01CB01019693
:10541000A11DB11DF80184839583A683B783808382
:105420009183A283B3835801F3E4AF0EB11CC5018D
:105430000E94F40C64E470E0C5010E945D108823B2
:1054400009F4CEC10E9409052B013C0143E0242E42
:1054500058EEC52E53E0D52EE12CF12C912C812C49
:10546000A8A9B9A98C918330B9F18111C9C1F801FA
:1054700084819581A681B7810196A11DB11D848388
:105480009583A683B7830E94090564197509860967
:105490009709A70196010E94F435A90161E0C801AE
:1054A0000E94051881E0A8A9B9A98C93F1E08F1694
:1054B0009104B1F20E9409056419750986099709DA
:1054C000D801D6962D913D914D915C91D997261793
:1054D00037074807590710F6C5010E94F40CF80178
:1054E00084819581A681B7810196A11DB11D848318
:1054F0009583A683B7830E940905F801FE96608311
:105500007183828393838A94892809F069C180E535
:1055100091E00E945C020091FE031091FF03B8012C
:10552000625F7F4FCE0101960E94021444E050E07A
:10553000BE016D5F7F4F8FE090E00E946D07B80164
:105540006A5E7F4FCE0101960E94021444E050E053
:10555000BE016D5F7F4F81E090E00E946D07B80152
:105560006E5E7F4FCE0101960E94021444E050E02F
:10557000BE016D5F7F4F85E090E00E946D07B8012E
:10558000625E7F4FCE0101960E9402148B819C8146
:10559000AD81BE818093500590935105A093520533
:1055A000B09353050E94B1047F73809121019091C3
:1055B000220168277927709322016093210168EE08
:1055C00073E080E090E00E94D60487EC91E09A833B
:1055D00089831B821C821D821E8280E591E00E94CD
:1055E0005C0244E050E0BE016D5F7F4F8FE090E0D1
:1055F0000E94240C0E94EB0A8BED92E00E946C0347
:105600006B8187E894E00E94A60A6EE287E894E046
:105610000E9478026C8187E894E00E94A60A6EE2FC
:1056200087E894E00E9478026D8187E894E00E9408
:10563000A60A6EE287E894E00E9478026E8187E80D
:1056400094E00E94A60A69EC71E087E894E00E9469
:10565000250A80E091E090933106809330060E9405
:105660000905DC01CB0188589341A109B109809358
:10567000380690933906A0933A06B0933B06809380
:10568000340690933506A0933606B0933706809380
:105690003C0690933D06A0933E06B0933F060E94C1
:1056A000EB0A87E092E00E94340AE0912E06F09126
:1056B0002F068AE692E09187808780E590E09387C5
:1056C000828780912E0690912F060E949109109258
:1056D0004606109245060E9409054B015C01809127
:1056E000450690914606019709F457C10E940905A5
:1056F000681979098A099B09603576448105910505
:1057000008F04BC184E296E00E94771BE8CF87E364
:105710008093860480E80E941D080E94AC0D8823B7
:1057200029F188E00E941D080E94990D8830F1F44B
:1057300080E10E941D080E94990D182F8031B1F45C
:1057400080E00E941D080E94990D81110FC041E068
:1057500050E0BE016F5F7F4F89E390E00E94240C10
:105760008981843019F41093FC03E5CD83E38093A1
:10577000860480E80E941D080E94AC0D882371F108
:1057800080E10E941D080E94990D803139F582E167
:105790000E941D080E94990D823101F580E00E944F
:1057A0001D080E94990D811119C084E08093FC03AB
:1057B00015E51FA741E050E0BE01615D7F4F8BE121
:1057C00090E00E946D071EA741E050E0BE01625DBF
:1057D0007F4F8AE190E00E946D07ADCD1092860464
:1057E0000E94EB0A8FED92E00E94340A60E177E2BA
:1057F00080E090E00E94D604F0E0E0E00995FFCF61
:10580000843001F5F80184819581A681B7810196E4
:10581000A11DB11D84839583A683B7830E940905CA
:105820006419750986099709A70196010E94F43544
:10583000A90163E0C8010E940518E2E0A8A9B9A97E
:10584000EC9334CE813069F5D801DA964D915D91B3
:105850006D917C91DD979E012F5F3F4FC8010E94A3
:10586000B319382EB2E08B1391C089819A81AB8134
:10587000BC81F80184839583A683B7830E940905C0
:105880006419750986099709A70196010E94F435E4
:10589000A90163E0C8010E940518A8A9B9A93C9212
:1058A00005CE823009F002CEF80142AD53AD64ADB1
:1058B00075AD9E012F5F3F4FC8010E94B319382E6E
:1058C000F5E08F135CC0A8A9B9A92C92F80182A1B8
:1058D00093A1A4A1B5A1892B8A2B8B2B41F484E839
:1058E00093E0A0E0B0E082A393A3A4A3B5A3F80142
:1058F00086A197A1A0A5B1A5892B8A2B8B2B61F43A
:1059000082A193A1A4A1B5A1B695A79597958795D6
:1059100086A397A3A0A7B1A7F80182A593A5A4A5E4
:10592000B5A5892B8A2B8B2BA9F482A193A1A4A1C5
:10593000B5A1AC01BD0123E07695679557954795D4
:105940002A95D1F7841B950BA60BB70B82A793A7BB
:10595000A4A7B5A7F80186A197A1A0A5B1A586A780
:1059600097A7A0ABB1AB82A593A5A4A5B5A582AB23
:1059700093ABA4ABB5AB88248394912C97CDF6E080
:105980008F1304C0A8A9B9A91C9290CDBFEF3B12F8
:105990008DCDE8A9F9A9108289CD80914506909115
:1059A0004606019709F08DCE61E085E00E94030470
:1059B00061E084E00E94030460E085E00E94D5037A
:1059C00060E084E00E94D503E0919704F091980490
:1059D00082E08083E0919304F09194041082E0913E
:1059E0009504F091960487E6808310929F04E091DD
:1059F0009B04F0919C0486E08083E0919904F091EF
:105A00009A04808180618083E0919904F0919A04E6
:105A1000808188608083E0919904F0919A0480816C
:105A200080688083E0919904F0919A0480818F7D51
:105A300080838FEF90E00E9487038FEF90E00E94B9
:105A400087038FEF90E00E94870380912206909158
:105A5000230697FF22C00E940905E2E7F5E050E027
:105A600040E026E1249FD001259FB00D11248D0137
:105A70000E581A4FD801322F1D923A95E9F76083DC
:105A80007183828393834F5F5F4F769648305105D1
:105A900049F71092230610922206809122069091D7
:105AA00023060897CCF5E2E7F5E090E080E024815A
:105AB0003581232B09F007C226813781232B09F07A
:105AC00002C226E1289F8001299F100D11240E5843
:105AD0001A4F84EF91E0A0E0B0E0F801838794874B
